---
title: Use Foundry with Polkadot Hub
description: TODO
---

# Foundry

[`foundry-polkadot`](https://github.com/paritytech/foundry-polkadot/){target=\_blank} is an adaptation specifically engineered for the Polkadot Hub, it's tailored for developers already familiar with Foundry who are seeking to leverage its capabilities within the Polkadot ecosystem. Additionally, this document offers detailed information on the `forge` and `cast` commands supported within `foundry-polkadot`, complete with simple, runnable examples for quick reference.

### Installation

The installation process is tailored for the Polkadot variant:

- `foundry-polkadot` is installed via `foundryup-polkadot`, its dedicated installer. To get started, open your terminal and execute:

    ```bash
    curl -L https://raw.githubusercontent.com/paritytech/foundry-polkadot/refs/heads/master/foundryup/install | bash
    ```

    This command initiates the installation of `foundryup-polkadot`, which then automatically fetches the latest precompiled `forge` and `cast` binaries. For Windows users, it's necessary to use a Unix-like terminal environment such as Git BASH or Windows Subsystem for Linux (WSL), as PowerShell and Command Prompt are not currently supported by `foundryup`.

    Run the following command to download the precompiled `foundry-polkadot` binaries:

    ```bash
    foundryup-polkadot
    ```

### Compiler Integration

A core divergence lies in the underlying Solidity compiler.

- **Foundry** is built to interface with the `solc` compiler, which targets Ethereum's Ethereum Virtual Machine (EVM).
- **`foundry-polkadot`**, in contrast, introduces and primarily utilizes the `resolc` compiler to compile down Solidity contracts into PolkaVM bytecode. 
    - **Command-Line Flag**: For commands that involve compilation (e.g., `forge build`), you can use the `--resolc` flag to enable `resolc` compilation. For example:

        ```bash
        forge build --resolc
        ```

        This instructs Forge to use `resolc` instead of `solc`, generating bytecode compatible with PolkaVM.

    - **Configuration File**: Alternatively, you can configure `resolc` usage in the `foundry.toml` file by adding:

        ```toml
        [profile.default.resolc]
        resolc_compile = true
        ```

        Setting `resolc_compile = false` reverts to using `solc`, ensuring compatibility with Ethereum projects. By default, `foundry-polkadot` uses `solc` unless `resolc` is explicitly enabled. `resolc` also exposes specific options for fine-tuning the compilation process, such as `--use-resolc <RESOLC_VERSION>` for specifying a compiler version or path, `-O, --resolc-optimizer-mode <LEVEL>` for setting optimization levels, and `--heap-size <SIZE>` and `--stack-size <SIZE>` for configuring contract memory.


### Command-Line Interface (CLI)

`foundry-polkadot` preserves the familiar `forge` and `cast` subcommand structure. However, it's crucial to note that commands which involve compilation (such as `create`, `bind`, `build`, and `inspect`) will yield different output when ``resolc`` is utilized, as the generated bytecode is specifically designed for PolkaVM rather than the EVM.

### Unsupported or Modified Features

Not all functionalities from the original Foundry are present or behave identically in `foundry-polkadot`:

- **Currently Unsupported**:
    - Compilation of Yul code is not yet supported.
    - Support for factory contracts deployment is a known issue that is currently unresolved.
- **Broader Feature Limitations**: Integration with `Anvil` and `Chisel` (Foundry's local blockchain and EVM toolkit, respectively) is not available. This directly impacts the support for several key commands, including `forge test` for running tests, `forge snapshot` for creating blockchain state snapshots, and `forge script` for complex deployment and interaction scripts.
- **Modified Feature**: The most notable modification is in the **compilation output**. When ``resolc`` is employed, the resulting bytecode will fundamentally differ from that generated by ``solc``, reflecting PolkaVM's distinct architectural requirements.

## Supported `foundry-polkadot` Commands

This section provides a detailed breakdown of the `forge` and `cast` commands supported in `foundry-polkadot`. Each working command includes a simple example to illustrate its basic usage. The status of each command is indicated by a color scheme: <span style="color: green;">green</span> denotes a working (supported) command, while <span style="color: red;">red</span> indicates a non-working (unsupported) command. Commands not explicitly listed are generally not supported.

### Forge Commands

#### Working Commands

* **`init`**
    * **Command**: `forge init`
    * **Description**: Initializes a new Foundry project in the current directory, setting up the basic project structure and installing standard libraries.
    * **Example**:
        ```bash
        forge init my-polkadot-project
        # Output:
        # Initializing /my-polkadot-project...
        # Installing forge-std in /my-polkadot-project/lib/forge-std (url: Some("[https://github.com/foundry-rs/forge-std](https://github.com/foundry-rs/forge-std)"), tag: None)
        # Cloning into '/my-polkadot-project/lib/forge-std'...
        #       Installed forge-std v1.9.7
        #       Initialized forge project
        ```

* **`bind`**
    * **Command**: `forge bind [--resolc]`
    * **Description**: Generates type-safe Rust bindings for your Solidity contracts. Use `--resolc` to ensure compilation with the `resolc` compiler for PolkaVM compatibility.
    * **Example**:
        ```bash
        forge bind --resolc
        # Output:
        # Compiling 23 files with `resolc` v0.2.0, `solc` v0.8.30
        # installing solc version "0.8.30"
        # Successfully installed solc 0.8.30
        # `resolc` 0.2.0, `solc` 0.8.30 finished in 7.22s
        # Compiler run successful with warnings:
        # Warning: Warning: Your code or one of its dependencies uses the 'extcodesize' instruction, which is
        # usually needed in the following cases:
        #   1. To detect whether an address belongs to a smart contract.
        #   2. To detect whether the deploy code execution has finished.
        # Polkadot comes with native account abstraction support (so smart contracts are just accounts
        # coverned by code), and you should avoid differentiating between contracts and non-contract
        # addresses.
        # --> lib/forge-std/src/StdCheats.sol
        # ... (other warnings) ...
        # Generating bindings for 2 contracts
        # Bindings have been generated to /test/out/bindings
        ```

* **`bind-json`**
    * **Command**: `forge bind-json [--resolc]`
    * **Description**: Generates JSON bindings for your Solidity contracts. Use `--resolc` for `resolc`-based compilation.
    * **Example**:
        ```bash
        forge bind-json --resolc
        # Output:
        # Compiling 24 files with `resolc` v0.2.0, `solc` v0.8.30
        # installing solc version "0.8.30"
        # Successfully installed solc 0.8.30
        # `resolc` 0.2.0, `solc` 0.8.30 finished in 5.23s
        # Bindings written to /test/utils/JsonBindings.sol
        ```

* **`build`**
    * **Command**: `forge build [--resolc]`
    * **Description**: Compiles all Solidity contracts in your project. Specify `--resolc` to compile for PolkaVM.
    * **Example**:
        ```bash
        forge build --resolc
        # Output:
        # Compiling 23 files with `resolc` v0.2.0, `solc` v0.8.30
        # installing solc version "0.8.30"
        # Successfully installed solc 0.8.30
        # `resolc` 0.2.0, `solc` v0.8.30 finished in 7.22s
        # Compiler run successful with warnings:
        # Warning: Warning: Your code or one of its dependencies uses the 'extcodesize' instruction, which is
        # usually needed in the following cases:
        #   1. To detect whether an address belongs to a smart contract.
        #   2. To detect whether the deploy code execution has finished.
        # Polkadot comes with native account abstraction support (so smart contracts are just accounts
        # coverned by code), and you should avoid differentiating between contracts and non-contract
        # addresses.
        # --> lib/forge-std/src/StdCheats.sol
        # ... (other warnings) ...
        ```

* **`cache clean`**
    * **Command**: `forge cache clean`
    * **Description**: Clears the Foundry cache directory.
    * **Example**:
        ```bash
        forge cache clean
        # Output: (No explicit output, just clears cache)
        ```

* **`cache ls`**
    * **Command**: `forge cache ls`
    * **Description**: Lists the contents of the Foundry cache.
    * **Example**:
        ```bash
        forge cache ls
        # Output: (Lists cached items, e.g., compiler versions)
        ```

* **`clean`**
    * **Command**: `forge clean`
    * **Description**: Removes all build artifacts from the project's `out` directory.
    * **Example**:
        ```bash
        forge clean
        # Output: (No explicit output, just cleans project)
        ```

* **`compiler resolve`**
    * **Command**: `forge compiler resolve [--resolc]`
    * **Description**: Resolves and displays the versions of Solidity compilers Foundry is using. Use `--resolc` to also check for `resolc`.
    * **Example**:
        ```bash
        forge compiler resolve --resolc
        # Output:
        # Solidity:
        # - `resolc` v0.2.0, `solc` v0.8.30
        ```

* **`config`**
    * **Command**: `forge config`
    * **Description**: Displays the current Foundry project configuration, including settings from `foundry.toml`.
    * **Example**:
        ```bash
        forge config
        # Output: (Prints the current configuration)
        ```

* **`create`**
    * **Command**: `forge create [OPTIONS] <CONTRACT>`
    * **Required Parameters**: `<CONTRACT>` (the name of the contract to deploy)
    * **Description**: Deploys a new contract to a specified blockchain network. The `--resolc` flag ensures it's compiled for PolkaVM. You'll typically need to provide an RPC URL, a private key for the deployer account, and potentially constructor arguments.
    * **Example**:
        ```bash
        forge create Counter \
          --resolc \
          --rpc-url [https://testnet-passet-hub-eth-rpc.polkadot.io](https://testnet-passet-hub-eth-rpc.polkadot.io) \
          --private-key 0xacef3f4d5f7c6666e927c24af52f35c45c07990d1f199cd476b0189d1029419f \
          --broadcast \
          --constructor-args 0
        # Output:
        # Compiling 1 files with `resolc` v0.2.0, `solc` v0.8.30
        # installing solc version "0.8.30"
        # Successfully installed solc 0.8.30
        # `resolc` 0.2.0, `solc` 0.8.30 finished in 2.21s
        # Compiler run successful!
        # Deployer: 0x2a187c63c5c5212006cBB5D42CCd0BF0F67B142E
        # Deployed to: 0xF4ed7573DA31302eCe974692e230Cc9F4D9CE18D
        # Transaction hash: 0x4e14189ff8197e8c8c4a0e0ee3c59884b89fd7dfc1a322011506093dc546a88a
        ```

* **`doc`**
    * **Command**: `forge doc`
    * **Description**: Generates documentation for your Solidity contracts.
    * **Example**:
        ```bash
        forge doc
        # Output: (Generates documentation files)
        ```

* **`flatten`**
    * **Command**: `forge flatten [OPTIONS] <PATH>`
    * **Required Parameters**: `<PATH>` (the path to the Solidity file)
    * **Description**: Combines all imports of a Solidity file into a single file, useful for deployment or verification.
    * **Example**:
        ```bash
        forge flatten src/MyContract.sol
        # Output:
        # // SPDX-License-Identifier: UNLICENSED
        # pragma solidity ^0.8.13;
        #
        # // src/Counter.sol
        #
        # contract Counter {
        #    uint256 public number;
        #
        #    function setNumber(uint256 newNumber) public {
        #        number = newNumber;
        #    }
        #
        #    function increment() public {
        #        number++;
        #    }
        # }
        ```

* **`fmt`**
    * **Command**: `forge fmt`
    * **Description**: Formats Solidity code according to a predefined style.
    * **Example**:
        ```bash
        forge fmt
        # Output: (Formats files in place, no explicit output on success)
        ```

* **`geiger`**
    * **Command**: `forge geiger <PATH>`
    * **Required Parameters**: `<PATH>` (the path to the Solidity file)
    * **Description**: Analyzes Solidity code for potential security vulnerabilities and gas inefficiencies.
    * **Example**:
        ```bash
        forge geiger src/Counter.sol
        # Output: (Prints analysis results)
        ```

* **`generate test`**
    * **Command**: `forge generate test --contract-name <CONTRACT_NAME>`
    * **Required Parameters**: `--contract-name <CONTRACT_NAME>` (the name of the contract for which to generate a test)
    * **Description**: Creates a new test file with boilerplate code for a specified contract.
    * **Example**:
        ```bash
        forge generate test --contract-name MyToken
        # Output:
        # Generated test file: test/MyToken.t.sol
        ```

* **`generate-fig-spec`**
    * **Command**: `forge generate-fig-spec`
    * **Description**: Generates a Fig specification for CLI autocompletion tools.
    * **Example**:
        ```bash
        forge generate-fig-spec
        # Output: (Generates a specification file)
        ```

* **`inspect`**
    * **Command**: `forge inspect <CONTRACT_NAME> <ARTIFACT> [--resolc]`
    * **Required Parameters**: `<CONTRACT_NAME>` (the contract to inspect), `<ARTIFACT>` (e.g., `bytecode`, `abi`, `methods`, `events`)
    * **Description**: Displays various artifacts of a compiled contract. Use `--resolc` to inspect `resolc`-compiled artifacts; the bytecode will start with `0x505`.
    * **Example**:
        ```bash
        forge inspect Counter bytecode --resolc
        # Output: (Prints the PolkaVM bytecode of the Counter contract)
        ```

* **`install`**
    * **Command**: `forge install <REPOSITORY>`
    * **Description**: Installs a Solidity library or dependency from a Git repository.
    * **Example**:
        ```bash
        forge install OpenZeppelin/openzeppelin-contracts
        # Output:
        # Installing openzeppelin-contracts in /my-polkadot-project/lib/openzeppelin-contracts (url: Some("[https://github.com/OpenZeppelin/openzeppelin-contracts](https://github.com/OpenZeppelin/openzeppelin-contracts)"), tag: None)
        # Cloning into '/my-polkadot-project/lib/openzeppelin-contracts'...
        #       Installed openzeppelin-contracts v5.0.2
        ```

* **`update`**
    * **Command**: `forge update [<REPOSITORY>]`
    * **Description**: Updates installed dependencies. If a repository is specified, only that one is updated.
    * **Example**:
        ```bash
        forge update OpenZeppelin/openzeppelin-contracts
        # Output: (Updates the specified dependency)
        ```

* **`remappings`**
    * **Command**: `forge remappings`
    * **Description**: Lists the currently configured Solidity compiler remappings.
    * **Example**:
        ```bash
        forge remappings
        # Output:
        # forge-std/=lib/forge-std/src/
        # openzeppelin-contracts/=lib/openzeppelin-contracts/
        ```

* **`remove`**
    * **Command**: `forge remove <REPOSITORY>`
    * **Description**: Removes an installed Solidity dependency. Use `--force` to remove without confirmation.
    * **Example**:
        ```bash
        forge remove OpenZeppelin/openzeppelin-contracts --force
        # Output:
        # Removing 'openzeppelin-contracts' in lib/openzeppelin-contracts, (url: None, tag: None)
        ```

* **`selectors upload`**
    * **Command**: `forge selectors upload [--all]`
    * **Description**: Uploads function selectors from compiled contracts to OpenChain. Use `--all` to upload for all contracts.
    * **Example**:
        ```bash
        forge selectors upload --all
        # Output:
        # Compiling 1 files with `resolc` v0.2.0, `solc` v0.8.30
        # installing solc version "0.8.30"
        # Successfully installed solc 0.8.30
        # `resolc` 0.2.0, `solc` 0.8.30 finished in 6.46s
        # Compiler run successful with warnings:
        # Warning: Warning: Your code or one of its dependencies uses the 'extcodesize' instruction, which is
        # usually needed in the following cases:
        #   1. To detect whether an address belongs to a smart contract.
        #   2. To detect whether the deploy code execution has finished.
        # Polkadot comes with native account abstraction support (so smart contracts are just accounts
        # coverned by code), and you should avoid differentiating between contracts and non-contract
        # addresses.
        # --> lib/forge-std/src/StdCheats.sol
        # ... (other warnings) ...
        # Uploading selectors for Counter...
        # Duplicated: Function increment(): 0xd09de08a
        # Duplicated: Function number(): 0x8381f58a
        # Duplicated: Function setNumber(uint256): 0x3fb5c1cb
        # Selectors successfully uploaded to OpenChain
        ```

* **`selectors list`**
    * **Command**: `forge selectors list`
    * **Description**: Lists all known function selectors for contracts in the project.
    * **Example**:
        ```bash
        forge selectors list
        # Output:
        # Listing selectors for contracts in the project...
        # Counter
        #
        # ╭----------+--------------------+------------╮
        # | Type     | Signature          | Selector   |
        # +============================================+
        # | Function | increment()        | 0xd09de08a |
        # |----------+--------------------+------------|
        # | Function | number()           | 0x8381f58a |
        # |----------+--------------------+------------|
        # | Function | setNumber(uint256) | 0x3fb5c1cb |
        # ╰----------+--------------------+------------╯
        ```

* **`selectors find`**
    * **Command**: `forge selectors find <SELECTOR>`
    * **Description**: Searches for a function signature given its 4-byte selector.
    * **Example**:
        ```bash
        forge selectors find 0xd09de08a
        # Output:
        # Searching for selector "0xd09de08a" in the project...
        #
        # Found 1 instance(s)...
        #
        # ╭----------+-------------+------------+----------╮
        # | Type     | Signature   | Selector   | Contract |
        # +================================================+
        # | Function | increment() | 0xd09de08a | Counter  |
        # ╰----------+-------------+------------+----------╯
        ```

* **`selectors cache`**
    * **Command**: `forge selectors cache`
    * **Description**: Caches function selectors for faster lookup.
    * **Example**:
        ```bash
        forge selectors cache
        # Output:
        # Caching selectors for contracts in the project...
        ```

* **`tree`**
    * **Command**: `forge tree`
    * **Description**: Displays the dependency tree of your Solidity contracts.
    * **Example**:
        ```bash
        forge tree
        # Output: (Prints the dependency tree)
        ```

#### ❌ Not Working Commands

* **`clone`**: This command is not supported in `foundry-polkadot`.
* **`coverage`**: Code coverage analysis is not supported.
    * **Command**: `forge coverage [--resolc]`
* **`snapshot`**: Creating blockchain state snapshots is not supported.
    * **Command**: `forge snapshot [--resolc]`
* **`test`**: Running Solidity tests is not supported.
    * **Command**: `forge test`

---

### Cast Commands

#### ✅ Working Commands

* **`4byte`**
    * **Command**: `cast 4byte [OPTIONS] [TOPIC_0]`
    * **Description**: Decodes a 4-byte function selector into its human-readable function signature.
    * **Example**:
        ```bash
        cast 4byte 0xd09de08a
        # Output:
        # increment()
        ```

* **`4byte-event`**
    * **Command**: `cast 4byte-event [OPTIONS] [TOPIC_0]`
    * **Description**: Decodes a 4-byte event topic into its human-readable event signature.
    * **Example**:
        ```bash
        cast 4byte-event 0xb68ce3d4f35f8b562c4caf11012045e29a80cc1082438f785646ec651416c8d6
        # Output:
        # CounterChanged(int256)
        ```

* **`abi-encode`**
    * **Command**: `cast abi-encode <SIG> [ARGS]...`
    * **Required Parameters**: `<SIG>` (the function signature), `[ARGS]` (arguments to encode)
    * **Description**: ABI-encodes function arguments according to a given signature.
    * **Example**:
        ```bash
        cast abi-encode "setNumber(uint256)" 123
        # Output:
        # 0x3fb5c1cb000000000000000000000000000000000000000000000000000000000000007b
        ```

* **`address-zero`**
    * **Command**: `cast address-zero`
    * **Description**: Returns the zero address (0x00...00).
    * **Example**:
        ```bash
        cast address-zero
        # Output:
        # 0x0000000000000000000000000000000000000000
        ```

* **`age`**
    * **Command**: `cast age [OPTIONS] [BLOCK]`
    * **Description**: Converts a block number or tag (e.g., `latest`) into its timestamp.
    * **Example**:
        ```bash
        cast age latest --rpc-url [https://westend-asset-hub-eth-rpc.polkadot.io](https://westend-asset-hub-eth-rpc.polkadot.io)
        # Output:
        # Fri Jun 13 14:53:05 2025 UTC
        ```

* **`balance`**
    * **Command**: `cast balance [OPTIONS] <WHO>`
    * **Required Parameters**: `<WHO>` (the address to check)
    * **Description**: Retrieves the native token balance of a given address on the specified RPC network.
    * **Example**:
        ```bash
        cast balance 0x2FCDC5f0799ACCb67008aaB9D4AAA08994897997 --rpc-url [https://testnet-passet-hub-eth-rpc.polkadot.io](https://testnet-passet-hub-eth-rpc.polkadot.io)
        # Output:
        # 99922331840422000000
        ```

* **`base-fee`**
    * **Command**: `cast base-fee [OPTIONS] [BLOCK]`
    * **Description**: Retrieves the base fee per gas for a specific block (defaults to `latest`).
    * **Example**:
        ```bash
        cast base-fee latest --rpc-url [https://testnet-passet-hub-eth-rpc.polkadot.io](https://testnet-passet-hub-eth-rpc.polkadot.io)
        # Output:
        # 1000
        ```

* **`block`**
    * **Command**: `cast block [OPTIONS] [BLOCK]`
    * **Description**: Retrieves comprehensive details about a specific block (defaults to `latest`).
    * **Example**:
        ```bash
        cast block latest --rpc-url [https://testnet-passet-hub-eth-rpc.polkadot.io](https://testnet-passet-hub-eth-rpc.polkadot.io)
        # Output:
        # baseFeePerGas       1000
        # difficulty          0
        # extraData           0x
        # gasLimit            1966080000000
        # gasUsed             0
        # hash                0x54bb013653c8c9f6e76e4e48666bc8451e7d139e0a1e71af2319b9e17abdb889
        # ... (other block details) ...
        # timestamp           1749564276 (Tue, 10 Jun 2025 14:04:36 +0000)
        # transactions:       []
        ```

* **`block-number`**
    * **Command**: `cast block-number [OPTIONS] [BLOCK]`
    * **Description**: Retrieves the number of the latest or a specified block.
    * **Example**:
        ```bash
        cast block-number latest --rpc-url [https://testnet-passet-hub-eth-rpc.polkadot.io](https://testnet-passet-hub-eth-rpc.polkadot.io)
        # Output:
        # 179802
        ```

* **`call`**
    * **Command**: `cast call [OPTIONS] <TO> <SIG> [ARGS]...`
    * **Description**: Executes a read-only (constant) function call on a contract. No transaction is sent to the network.
    * **Example**:
        ```bash
        cast call 0x21dE540Df1C0FAC44E9504fbf43046d1656ED0c7 "number()" --rpc-url [https://testnet-passet-hub-eth-rpc.polkadot.io](https://testnet-passet-hub-eth-rpc.polkadot.io)
        # Output:
        # 0x0000000000000000000000000000000000000000000000000000000000000000 (if number is 0)
        ```

* **`chain`**
    * **Command**: `cast chain [OPTIONS]`
    * **Description**: Displays the human-readable name of the connected blockchain.
    * **Example**:
        ```bash
        cast chain --rpc-url [https://testnet-passet-hub-eth-rpc.polkadot.io](https://testnet-passet-hub-eth-rpc.polkadot.io)
        # Output: (e.g., "Polkadot Asset Hub Testnet")
        ```

* **`chain-id`**
    * **Command**: `cast chain-id [OPTIONS]`
    * **Description**: Displays the chain ID of the connected blockchain.
    * **Example**:
        ```bash
        cast chain-id --rpc-url [https://testnet-passet-hub-eth-rpc.polkadot.io](https://testnet-passet-hub-eth-rpc.polkadot.io)
        # Output: (e.g., "420420421")
        ```

* **`client`**
    * **Command**: `cast client [OPTIONS]`
    * **Description**: Retrieves information about the connected RPC client (node software).
    * **Example**:
        ```bash
        cast client --rpc-url [https://testnet-passet-hub-eth-rpc.polkadot.io](https://testnet-passet-hub-eth-rpc.polkadot.io)
        # Output: (e.g., "Parity-Polkadot-Node/vX.Y.Z")
        ```

* **`code`**
    * **Command**: `cast code [OPTIONS] <WHO>`
    * **Required Parameters**: `<WHO>` (the contract address)
    * **Description**: Retrieves the bytecode deployed at a given contract address.
    * **Example**:
        ```bash
        cast code 0x21dE540Df1C0FAC44E9504fbf43046d1656ED0c7 --rpc-url [https://testnet-passet-hub-eth-rpc.polkadot.io](https://testnet-passet-hub-eth-rpc.polkadot.io)
        # Output: (Prints the contract bytecode)
        ```

* **`codesize`**
    * **Command**: `cast codesize [OPTIONS] <WHO>`
    * **Required Parameters**: `<WHO>` (the contract address)
    * **Description**: Retrieves the size of the bytecode deployed at a given contract address.
    * **Example**:
        ```bash
        cast codesize 0x21dE540Df1C0FAC44E9504fbf43046d1656ED0c7 --rpc-url [https://testnet-passet-hub-eth-rpc.polkadot.io](https://testnet-passet-hub-eth-rpc.polkadot.io)
        # Output:
        # 4994
        ```

* **`compute-address`**
    * **Command**: `cast compute-address [OPTIONS] <WHO>`
    * **Required Parameters**: `<WHO>` (the deployer's address)
    * **Description**: Computes the predicted contract address based on the deployer's address and nonce.
    * **Example**:
        ```bash
        cast compute-address 0x2FCDC5f0799ACCb67008aaB9D4AAA08994897997 --rpc-url [https://testnet-passet-hub-eth-rpc.polkadot.io](https://testnet-passet-hub-eth-rpc.polkadot.io)
        # Output:
        # Computed Address: 0xcbED7f469a9F2d5580E3fE09DFcd971e108D3a02
        ```

* **`decode-abi`**
    * **Command**: `cast decode-abi <SIG> <CALLDATA>`
    * **Required Parameters**: `<SIG>` (the function signature), `<CALLDATA>` (the ABI-encoded data)
    * **Description**: Decodes ABI-encoded output data from a contract call given its signature.
    * **Example**:
        ```bash
        cast decode-abi "balanceOf(address)(uint256)" 0x000000000000000000000000000000000000000000000000000000000000000a
        # Output:
        # 10
        ```

* **`decode-calldata`**
    * **Command**: `cast decode-calldata <SIG> <CALLDATA>`
    * **Required Parameters**: `<SIG>` (the function signature), `<CALLDATA>` (the raw calldata)
    * **Description**: Decodes raw calldata into human-readable arguments using a function signature.
    * **Example**:
        ```bash
        cast decode-calldata "transfer(address,uint256)" 0xa9059cbb000000000000000000000000e78388b4ce79068e89bf8aa7f218ef6b9ab0e9d0000000000000000000000000000000000000000000000000008a8e4b1a3d8000
        # Output:
        # 0xE78388b4CE79068e89Bf8aA7f218eF6b9AB0e9d0
        # 39000000000000000 [3.9e16]
        ```

* **`decode-error`**
    * **Command**: `cast decode-error <DATA> [--sig <SIGNATURE>]`
    * **Required Parameters**: `<DATA>` (the error data)
    * **Description**: Decodes a custom error message from a transaction revert. You may need to provide the error signature.
    * **Example**:
        ```bash
        cast decode-error 0x4e487b710000000000000000000000000000000000000000000000000000000000000011 --sig Panic(uint256)
        # Output:
        # 17
        ```

* **`decode-event`**
    * **Command**: `cast decode-event <DATA> [--sig <SIGNATURE>]`
    * **Required Parameters**: `<DATA>` (the event data)
    * **Description**: Decodes event data from a transaction log.
    * **Example**:
        ```bash
        cast decode-event 0x000000000000000000000000000000000000000000000000000000000000002a --sig CounterChanged(int256)
        # Output:
        # 42
        ```

* **`estimate`**
    * **Command**: `cast estimate [OPTIONS] [TO] [SIG] [ARGS]...`
    * **Required Parameters**: `[TO]` (the recipient address or contract), `[SIG]` (function signature), `[ARGS]` (arguments)
    * **Description**: Estimates the gas cost for a transaction or function call.
    * **Example**:
        ```bash
        cast estimate \
          --rpc-url [https://testnet-passet-hub-eth-rpc.polkadot.io](https://testnet-passet-hub-eth-rpc.polkadot.io) \
          --from 0x2FCDC5f0799ACCb67008aaB9D4AAA08994897997 \
          0x21dE540Df1C0FAC44E9504fbf43046d1656ED0c7 \
          "increment()"
        # Output:
        # 53772291631
        ```

* **`find-block`**
    * **Command**: `cast find-block [OPTIONS] <TIMESTAMP>`
    * **Required Parameters**: `<TIMESTAMP>` (a Unix timestamp)
    * **Description**: Finds the closest block number to a given Unix timestamp.
    * **Example**:
        ```bash
        cast find-block 1749564284 --rpc-url [https://testnet-passet-hub-eth-rpc.polkadot.io](https://testnet-passet-hub-eth-rpc.polkadot.io)
        # Output:
        # 179803
        ```

* **`gas-price`**
    * **Command**: `cast gas-price [OPTIONS]`
    * **Description**: Retrieves the current average gas price on the network.
    * **Example**:
        ```bash
        cast gas-price --rpc-url [https://testnet-passet-hub-eth-rpc.polkadot.io](https://testnet-passet-hub-eth-rpc.polkadot.io)
        # Output:
        # 1000
        ```

* **`generate-fig-spec`**
    * **Command**: `cast generate-fig-spec`
    * **Description**: Generates a Fig specification for CLI autocompletion.
    * **Example**:
        ```bash
        cast generate-fig-spec
        # Output: (Generates a specification file)
        ```

* **`index-string`**
    * **Command**: `cast index-string <STRING> <INDEX>`
    * **Description**: Computes the Keccak-256 hash of a string, useful for event topics.
    * **Example**:
        ```bash
        cast index-string "increment" 1
        # Output:
        # 0xc7728314374610455dba288d68795a0a1f4e297598fadddf5234bb036cb803cc
        ```

* **`index-erc7201`**
    * **Command**: `cast index-erc7201 <VALUE>`
    * **Description**: Computes the hash for an ERC-7201 identifier.
    * **Example**:
        ```bash
        cast index-erc7201 1
        # Output:
        # 0x37b41b5c3e40b7905ecb7bb8b5e767c8863eb94bcacb56e4ec2e4884d425e400
        ```

* **`logs`**
    * **Command**: `cast logs [OPTIONS] [SIG_OR_TOPIC] [TOPICS_OR_ARGS]...`
    * **Required Parameters**: `[SIG_OR_TOPIC]` (a signature or topic hash)
    * **Description**: Filters and displays event logs from transactions.
    * **Example**:
        ```bash
        cast logs \
          --rpc-url [https://testnet-passet-hub-eth-rpc.polkadot.io](https://testnet-passet-hub-eth-rpc.polkadot.io) \
          --address 0x21dE540Df1C0FAC44E9504fbf43046d1656ED0c7 \
          --from-block 78016
        # Output: (Prints transaction logs)
        ```

* **`max-int`**
    * **Command**: `cast max-int`
    * **Description**: Displays the maximum value for a signed 256-bit integer.
    * **Example**:
        ```bash
        cast max-int
        # Output:
        # 57896044618658097711785492504343953926634992332820282019728792003956564819967
        ```

* **`max-uint`**
    * **Command**: `cast max-uint`
    * **Description**: Displays the maximum value for an unsigned 256-bit integer.
    * **Example**:
        ```bash
        cast max-uint
        # Output:
        # 115792089237316195423570985008687907853269984665640564039457584007913129639935
        ```

* **`min-int`**
    * **Command**: `cast min-int`
    * **Description**: Displays the minimum value for a signed 256-bit integer.
    * **Example**:
        ```bash
        cast min-int
        # Output:
        # -57896044618658097711785492504343953926634992332820282019728792003956564819968
        ```

* **`mktx`**
    * **Command**: `cast mktx [OPTIONS] [TO] [SIG] [ARGS]...`
    * **Required Parameters**: `[TO]` (the recipient address or contract)
    * **Description**: Creates a raw, signed transaction that can be broadcast later.
    * **Example**:
        ```bash
        cast mktx 0x21dE540Df1C0FAC44E9504fbf43046d1656ED0c7 "increment()" \
          --rpc-url [https://testnet-passet-hub-eth-rpc.polkadot.io](https://testnet-passet-hub-eth-rpc.polkadot.io) \
          --private-key 0xf88c374c84378042e20927119c4c8b6ed2d57508c9b8a4f05fe2868ab8f8b73e \
          --from 0x2FCDC5f0799ACCb67008aaB9D4AAA08994897997
        # Output:
        # 0x02f86f84190f1b452d018207d1850c85140e2f9421de540df1c0fac44e9504fbf43046d1656ed0c78084d09de08ac080a0e12bf64571adf9c44e84de68e09b9e99167e40087674745f7b91bbffe6895dcea00c330054988ce9ddead827efb8a22bbf2634bc196b5bfa7f9d71c5de7794aaac
        ```

* **`decode-transaction`**
    * **Command**: `cast decode-transaction [OPTIONS] [TX]`
    * **Required Parameters**: `[TX]` (the raw transaction hex string)
    * **Description**: Decodes a raw transaction hex string into its human-readable components.
    * **Example**:
        ```bash
        cast decode-transaction 0x02f86f84190f1b452d018207d1850c85140e2f9421de540df1c0fac44e9504fbf43046d1656ed0c78084d09de08ac080a0e12bf64571adf9c44e84de68e09b9e99167e40087674745f7b91bbffe6895dcea00c330054988ce9ddead827efb8a22bbf2634bc196b5bfa7f9d71c5de7794aaac
        # Output:
        # {
        #   "signer": "0x2fcdc5f0799accb67008aab9d4aaa08994897997",
        #   "type": "0x2",
        #   "chainId": "0x190f1b45",
        #   "nonce": "0x2d",
        #   "gas": "0xc85140e2f",
        #   "maxFeePerGas": "0x7d1",
        #   "maxPriorityFeePerGas": "0x1",
        #   "to": "0x21de540df1c0fac44e9504fbf43046d1656ed0c7",
        #   "value": "0x0",
        #   "accessList": [],
        #   "input": "0xd09de08a",
        #   "r": "0xe12bf64571adf9c44e84de68e09b9e99167e40087674745f7b91bbffe6895dce",
        #   "s": "0xc330054988ce9ddead827efb8a22bbf2634bc196b5bfa7f9d71c5de7794aaac",
        #   "yParity": "0x0",
        #   "v": "0x0",
        #   "hash": "0x350fa5032a64c14e78fceb50769cc361edefab8c92bb966610bb7eae709db332"
        # }
        ```

* **`namehash increment`**
    * **Command**: `cast namehash <NAME>`
    * **Description**: Computes the ENS (Ethereum Name Service) namehash for a given name.
    * **Example**:
        ```bash
        cast namehash increment
        # Output:
        # 0x8afe645ccddb43a658dfe445605688ca833db88c87e218a157afdc04976d5462
        ```

* **`nonce`**
    * **Command**: `cast nonce [OPTIONS] <WHO>`
    * **Required Parameters**: `<WHO>` (the address to check)
    * **Description**: Retrieves the transaction count (nonce) for a given address.
    * **Example**:
        ```bash
        cast nonce 0x2FCDC5f0799ACCb67008aaB9D4AAA08994897997 --rpc-url [https://testnet-passet-hub-eth-rpc.polkadot.io](https://testnet-passet-hub-eth-rpc.polkadot.io)
        # Output:
        # 45
        ```

* **`parse-bytes32-address`**
    * **Command**: `cast parse-bytes32-address <VALUE>`
    * **Description**: Parses a 32-byte hex string (e.g., from `bytes32`) into an Ethereum address.
    * **Example**:
        ```bash
        cast parse-bytes32-address 0x000000000000000000000000000000000000000000000000000000000000000a
        # Output:
        # 0x000000000000000000000000000000000000000A
        ```

* **`parse-bytes32-string`**
    * **Command**: `cast parse-bytes32-string <VALUE>`
    * **Description**: Parses a 32-byte hex string into a human-readable string.
    * **Example**:
        ```bash
        cast parse-bytes32-string 0x696e6372656d656e740000000000000000000000000000000000000000000000
        # Output:
        # increment
        ```

* **`parse-units`**
    * **Command**: `cast parse-units <AMOUNT> [UNIT]`
    * **Description**: Converts a human-readable amount into its smallest unit (e.g., Ether to Wei). Defaults to `ether`.
    * **Example**:
        ```bash
        cast parse-units 1 ether
        # Output:
        # 1000000000000000000
        ```

* **`pretty-calldata`**
    * **Command**: `cast pretty-calldata [OPTIONS] <DATA>`
    * **Required Parameters**: `<DATA>` (the calldata hex string)
    * **Description**: Attempts to pretty-print and decode a raw calldata string into possible function calls.
    * **Example**:
        ```bash
        cast pretty-calldata 0xd09de08a
        # Output:
        # Possible methods:
        # - increment()
        # ------------
        ```

* **`publish`**
    * **Command**: `cast publish [OPTIONS] <RAW_TX>`
    * **Description**: Broadcasts a raw, signed transaction to the network.
    * **Example**:
        ```bash
        cast publish 0x02f86f84190f1b452d018207d1850c85140e2f9421de540df1c0fac44e9504fbf43046d1656ed0c78084d09de08ac080a0e12bf64571adf9c44e84de68e09b9e99167e40087674745f7b91bbffe6895dcea00c330054988ce9ddead827efb8a22bbf2634bc196b5bfa7f9d71c5de7794aaac \
          --rpc-url [https://testnet-passet-hub-eth-rpc.polkadot.io](https://testnet-passet-hub-eth-rpc.polkadot.io)
        # Output:
        # {"status":"0x1","cumulativeGasUsed":"0x0","logs":[],"logsBloom":"0x...","type":"0x2","transactionHash":"0x350fa5032a64c14e78fceb50769cc361edefab8c92bb966610bb7eae709db332","transactionIndex":"0x2","blockHash":"0x8338e28e7535066fe289f80b46cae381ad591a6609637059f7866dc6a7eadde0","blockNumber":"0x2be5d","gasUsed":"0x2227833c87","effectiveGasPrice":"0x3e9","from":"0x2fcdc5f0799accb67008aab9d4aaa08994897997","to":"0x21de540df1c0fac44e9504fbf43046d1656ed0c7","contractAddress":null}
        ```

* **`receipt`**
    * **Command**: `cast receipt [OPTIONS] <TX_HASH>`
    * **Description**: Retrieves the transaction receipt for a given transaction hash, including status, gas usage, and logs.
    * **Example**:
        ```bash
        cast receipt 0x0cb04feb40b754ab47334d65df175f16972a72c7613c6747310138235b09d5c6 --rpc-url [https://testnet-passet-hub-eth-rpc.polkadot.io](https://testnet-passet-hub-eth-rpc.polkadot.io)
        # Output:
        # blockHash            0x8d25cc4503a87e575d677e22383bb2121d736b50425b35b9c7d74e1a8cd18b58
        # blockNumber          179801
        # contractAddress      0x21dE540Df1C0FAC44E9504fbf43046d1656ED0c7
        # cumulativeGasUsed    0
        # effectiveGasPrice    1001
        # from                 0x2FCDC5f0799ACCb67008aaB9D4AAA08994897997
        # gasUsed              1552638953046
        # logs                 []
        # ... (other receipt details) ...
        # status               1 (success)
        # transactionHash      0x0cb04feb40b754ab47334d65df175f16972a72c7613c6747310138235b09d5c6
        # transactionIndex     2
        ```

* **`rpc`**
    * **Command**: `cast rpc [OPTIONS] <METHOD> [PARAMS]...`
    * **Required Parameters**: `<METHOD>` (the RPC method to call), `[PARAMS]` (parameters for the method)
    * **Description**: Makes a direct RPC call to the connected blockchain node.
    * **Example**:
        ```bash
        cast rpc eth_getTransactionByHash 0x0cb04feb40b754ab47334d65df175f16972a72c7613c6747310138235b09d5c6 --rpc-url [https://testnet-passet-hub-eth-rpc.polkadot.io](https://testnet-passet-hub-eth-rpc.polkadot.io)
        # Output:
        # {"blockHash":"0x8d25cc4503a87e575d677e22383bb2121d736b50425b35b9c7d74e1a8cd18b58","blockNumber":"0x2be59","from":"0x2fcdc5f0799accb67008aab9d4aaa08994897997","hash":"0x0cb04feb40b754ab47334d65df175f16972a72c7613c6747310138235b09d5c6","transactionIndex":"0x2","accessList":[],"chainId":"0x190f1b45","gas":"0x78931d5ab1","gasPrice":"0x0","input":"","maxFeePerGas":"0x7d1","maxPriorityFeePerGas":"0x1","nonce":"0x2b","to":null,"type":"0x2","value":"0x0","r":"0x49922d3ebb211a638efd05bf5bc30160e054e809d4966f348f391bf16466ce5b","s":"0x65547942a3c8aac5f74b34a7268ccd89b39a8908b921bc754bbb408622ec3acf","yParity":"0x1"}
        ```

* **`send`**
    * **Command**: `cast send [OPTIONS] <TO> <SIG> [ARGS]...`
    * **Required Parameters**: `<TO>` (the recipient address or contract)
    * **Description**: Sends a transaction to a contract or address, executing a function or transferring value.
    * **Example**:
        ```bash
        cast send 0x21dE540Df1C0FAC44E9504fbf43046d1656ED0c7 "increment()" \
          --rpc-url [https://testnet-passet-hub-eth-rpc.polkadot.io](https://testnet-passet-hub-eth-rpc.polkadot.io) \
          --private-key 0xf88c374c84378042e20927119c4c8b6ed2d57508c9b8a4f05fe2868ab8f8b73e
        # Output:
        # blockHash            0xd01aad373b99bf4ec44674658e96f523a072c1554758101d6acf5ae4ace8932f
        # blockNumber          179806
        # contractAddress
        # cumulativeGasUsed    0
        # effectiveGasPrice    1001
        # from                 0x2FCDC5f0799ACCb67008aaB9D4AAA08994897997
        # gasUsed              146739752247
        # logs                 []
        # ... (other receipt details) ...
        # status               1 (success)
        # transactionHash      0x9ee2f302231bd559a1176d9117f0910e6239b318e35c68bbc34e5445319f87f2
        # transactionIndex     2
        ```

* **`sig`**
    * **Command**: `cast sig <FUNCTION_SIGNATURE>`
    * **Required Parameters**: `<FUNCTION_SIGNATURE>` (the full function signature string)
    * **Description**: Computes the 4-byte function selector for a given function signature.
    * **Example**:
        ```bash
        cast sig "increment()"
        # Output:
        # 0xd09de08a
        ```

* **`sig-event`**
    * **Command**: `cast sig-event <EVENT_SIGNATURE>`
    * **Required Parameters**: `<EVENT_SIGNATURE>` (the full event signature string)
    * **Description**: Computes the Keccak-256 hash (topic) for a given event signature.
    * **Example**:
        ```bash
        cast sig-event "CounterChanged(int256)"
        # Output:
        # 0xb68ce3d4f35f8b562c4caf11012045e29a80cc1082438f785646ec651416c8d6
        ```

* **`storage`**
    * **Command**: `cast storage [OPTIONS] <ADDRESS> [SLOT]`
    * **Required Parameters**: `<ADDRESS>` (the contract address)
    * **Description**: Retrieves the raw value stored at a specific storage slot of a contract.
    * **Example**:
        ```bash
        cast storage 0x21dE540Df1C0FAC44E9504fbf43046d1656ED0c7 0 --rpc-url [https://testnet-passet-hub-eth-rpc.polkadot.io](https://testnet-passet-hub-eth-rpc.polkadot.io)
        # Output:
        # 0x0000000000000000000000000000000000000000000000000000000000000000 (if slot 0 contains 0)
        ```

* **`tx`**
    * **Command**: `cast tx [OPTIONS] <TX_HASH>`
    * **Description**: Retrieves comprehensive details about a specific transaction.
    * **Example**:
        ```bash
        cast tx 0x0cb04feb40b754ab47334d65df175f16972a72c7613c6747310138235b09d5c6 --rpc-url [https://testnet-passet-hub-eth-rpc.polkadot.io](https://testnet-passet-hub-eth-rpc.polkadot.io)
        # Output:
        # blockHash            0x8d25cc4503a87e575d677e22383bb2121d736b50425b35b9c7d74e1a8cd18b58
        # blockNumber          179801
        # from                 0x2FCDC5f0799ACCb67008aaB9D4AAA08994897997
        # transactionIndex     2
        # effectiveGasPrice    0
        # ... (other transaction details) ...
        # type                 2
        # value                0
        # yParity              1
        ```

* **`upload-signature`**
    * **Command**: `cast upload-signature [OPTIONS] <SIGNATURE_STRING>`
    * **Required Parameters**: `<SIGNATURE_STRING>` (the function or event signature)
    * **Description**: Uploads a function or event signature to the OpenChain registry.
    * **Example**:
        ```bash
        cast upload-signature "transfer(uint256)"
        # Output:
        # Duplicated: Function transfer(uint256): 0x12514bba
        # Selectors successfully uploaded to OpenChain
        ```

* **`wallet`**
    * **Command**: `cast wallet new`
    * **Description**: Generates a new random Ethereum keypair (private key and address).
    * **Example**:
        ```bash
        cast wallet new
        # Output:
        # Successfully created new keypair.
        # Address:     0x0d69fBC8e33b77De1BC8F67A44696E0Ec29aD176
        # Private key: 0x992a0e0c3200d9d6fa62138a96de0869d1c279eb52ef5878437dcd5c29cd3760
        ```

* **`wallet new-mnemonic`**
    * **Command**: `cast wallet new-mnemonic`
    * **Description**: Generates a new BIP-39 mnemonic phrase and derives the first account from it.
    * **Example**:
        ```bash
        cast wallet new-mnemonic
        # Output:
        # Generating mnemonic from provided entropy...
        # Successfully generated a new mnemonic.
        # Phrase:
        # common puppy load skill south minor struggle black invest entry save outdoor
        #
        # Accounts:
        # - Account 0:
        # Address:     0xB685D21617C57dc9387A54210C0E2F1D26492b9C
        # Private key: 0x0eef219f21f0f4df582a8b94ba333d731532287ca3b1e0426c39f8cffbee39a3
        ```

* **`wallet address`**
    * **Command**: `cast wallet address [OPTIONS]`
    * **Description**: Derives and displays the Ethereum address from a private key or mnemonic (if provided).
    * **Example**:
        ```bash
        cast wallet address --private-key 0xf88c374c84378042e20927119c4c8b6ed2d57508c9b8a4f05fe2868ab8f8b73e
        # Output:
        # 0x2FCDC5f0799ACCb67008aaB9D4AAA08994897997
        ```

#### Not Working Commands

* **`proof`**: This command, used for generating Merkle proofs, is not supported.
    * **Command**: `cast proof [OPTIONS] <ADDRESS> [SLOTS]...`
* **`storage-root`**: This command, used for retrieving the storage root of a contract, is not supported.
    * **Command**: `cast storage-root [OPTIONS] <WHO> [SLOTS]...`